{
  "_format": "hh-sol-artifact-1",
  "contractName": "MEVProtection",
  "sourceName": "contracts/MEVProtection.sol",
  "abi": [
    {
      "inputs": [
        {
          "internalType": "address payable",
          "name": "_to",
          "type": "address"
        },
        {
          "internalType": "uint256",
          "name": "_amount",
          "type": "uint256"
        },
        {
          "internalType": "bytes32",
          "name": "_nonce",
          "type": "bytes32"
        }
      ],
      "name": "executeTransaction",
      "outputs": [],
      "stateMutability": "nonpayable",
      "type": "function"
    }
  ],
  "bytecode": "0x608060405234801561001057600080fd5b506104b8806100206000396000f3fe608060405234801561001057600080fd5b506004361061002b5760003560e01c80632bedae8d14610030575b600080fd5b61004a6004803603810190610045919061020d565b61004c565b005b8060008082815260200190815260200160002060009054906101000a900460ff16156100ad576040517f08c379a00000000000000000000000000000000000000000000000000000000081526004016100a49061031d565b60405180910390fd5b600160008083815260200190815260200160002060006101000a81548160ff0219169083151502179055506000831161011b576040517f08c379a0000000000000000000000000000000000000000000000000000000008152600401610112906102fd565b60405180910390fd5b60008473ffffffffffffffffffffffffffffffffffffffff1684604051610141906102e8565b60006040518083038185875af1925050503d806000811461017e576040519150601f19603f3d011682016040523d82523d6000602084013e610183565b606091505b50509050806101c7576040517f08c379a00000000000000000000000000000000000000000000000000000000081526004016101be9061033d565b60405180910390fd5b5050505050565b6000813590506101dd8161043d565b92915050565b6000813590506101f281610454565b92915050565b6000813590506102078161046b565b92915050565b60008060006060848603121561022257600080fd5b6000610230868287016101ce565b9350506020610241868287016101f8565b9250506040610252868287016101e3565b9150509250925092565b6000610269602083610368565b9150610274826103bf565b602082019050919050565b600061028c601683610368565b9150610297826103e8565b602082019050919050565b60006102af601283610368565b91506102ba82610411565b602082019050919050565b60006102d260008361035d565b91506102dd8261043a565b600082019050919050565b60006102f3826102c5565b9150819050919050565b600060208201905081810360008301526103168161025c565b9050919050565b600060208201905081810360008301526103368161027f565b9050919050565b60006020820190508181036000830152610356816102a2565b9050919050565b600081905092915050565b600082825260208201905092915050565b600061038482610395565b9050919050565b6000819050919050565b600073ffffffffffffffffffffffffffffffffffffffff82169050919050565b6000819050919050565b7f416d6f756e74206d7573742062652067726561746572207468616e207a65726f600082015250565b7f5265706c61792061747461636b20646574656374656400000000000000000000600082015250565b7f5472616e73616374696f6e206661696c65640000000000000000000000000000600082015250565b50565b61044681610379565b811461045157600080fd5b50565b61045d8161038b565b811461046857600080fd5b50565b610474816103b5565b811461047f57600080fd5b5056fea2646970667358221220a05c292b3d7c7b42aff333e7939b5e92652ab66719f77701df3ccd251564426564736f6c63430008010033",
  "linkReferences": {},
  "deployedLinkReferences": {}
}